{
  "contractName": "stakeDAO",
  "abi": [
    {
      "inputs": [],
      "stateMutability": "nonpayable",
      "type": "constructor"
    },
    {
      "anonymous": false,
      "inputs": [
        {
          "indexed": true,
          "internalType": "address",
          "name": "_owner",
          "type": "address"
        },
        {
          "indexed": true,
          "internalType": "address",
          "name": "_spender",
          "type": "address"
        },
        {
          "indexed": false,
          "internalType": "uint256",
          "name": "_value",
          "type": "uint256"
        }
      ],
      "name": "Approval",
      "type": "event"
    },
    {
      "anonymous": false,
      "inputs": [
        {
          "indexed": true,
          "internalType": "address",
          "name": "_from",
          "type": "address"
        },
        {
          "indexed": true,
          "internalType": "address",
          "name": "_to",
          "type": "address"
        },
        {
          "indexed": false,
          "internalType": "uint256",
          "name": "_value",
          "type": "uint256"
        }
      ],
      "name": "Transfer",
      "type": "event"
    },
    {
      "inputs": [
        {
          "internalType": "address",
          "name": "",
          "type": "address"
        },
        {
          "internalType": "address",
          "name": "",
          "type": "address"
        }
      ],
      "name": "_allowances",
      "outputs": [
        {
          "internalType": "uint256",
          "name": "",
          "type": "uint256"
        }
      ],
      "stateMutability": "view",
      "type": "function",
      "constant": true
    },
    {
      "inputs": [
        {
          "internalType": "address",
          "name": "",
          "type": "address"
        },
        {
          "internalType": "address",
          "name": "",
          "type": "address"
        }
      ],
      "name": "_approve",
      "outputs": [
        {
          "internalType": "uint256",
          "name": "",
          "type": "uint256"
        }
      ],
      "stateMutability": "view",
      "type": "function",
      "constant": true
    },
    {
      "inputs": [
        {
          "internalType": "address",
          "name": "",
          "type": "address"
        }
      ],
      "name": "_balanceOf",
      "outputs": [
        {
          "internalType": "uint256",
          "name": "",
          "type": "uint256"
        }
      ],
      "stateMutability": "view",
      "type": "function",
      "constant": true
    },
    {
      "inputs": [
        {
          "internalType": "uint256",
          "name": "",
          "type": "uint256"
        }
      ],
      "name": "addressList",
      "outputs": [
        {
          "internalType": "address",
          "name": "",
          "type": "address"
        }
      ],
      "stateMutability": "view",
      "type": "function",
      "constant": true
    },
    {
      "inputs": [],
      "name": "contractAddress",
      "outputs": [
        {
          "internalType": "address",
          "name": "",
          "type": "address"
        }
      ],
      "stateMutability": "view",
      "type": "function",
      "constant": true
    },
    {
      "inputs": [],
      "name": "ownerAddress",
      "outputs": [
        {
          "internalType": "address",
          "name": "",
          "type": "address"
        }
      ],
      "stateMutability": "view",
      "type": "function",
      "constant": true
    },
    {
      "inputs": [],
      "name": "tokenType",
      "outputs": [
        {
          "internalType": "string",
          "name": "",
          "type": "string"
        }
      ],
      "stateMutability": "view",
      "type": "function",
      "constant": true
    },
    {
      "inputs": [],
      "name": "name",
      "outputs": [
        {
          "internalType": "string",
          "name": "",
          "type": "string"
        }
      ],
      "stateMutability": "pure",
      "type": "function",
      "constant": true
    },
    {
      "inputs": [],
      "name": "symbol",
      "outputs": [
        {
          "internalType": "string",
          "name": "",
          "type": "string"
        }
      ],
      "stateMutability": "pure",
      "type": "function",
      "constant": true
    },
    {
      "inputs": [],
      "name": "decimals",
      "outputs": [
        {
          "internalType": "uint8",
          "name": "",
          "type": "uint8"
        }
      ],
      "stateMutability": "pure",
      "type": "function",
      "constant": true
    },
    {
      "inputs": [],
      "name": "totalSupply",
      "outputs": [
        {
          "internalType": "uint256",
          "name": "",
          "type": "uint256"
        }
      ],
      "stateMutability": "view",
      "type": "function",
      "constant": true
    },
    {
      "inputs": [
        {
          "internalType": "address",
          "name": "_owner",
          "type": "address"
        }
      ],
      "name": "balanceOf",
      "outputs": [
        {
          "internalType": "uint256",
          "name": "balance",
          "type": "uint256"
        }
      ],
      "stateMutability": "view",
      "type": "function",
      "constant": true
    },
    {
      "inputs": [
        {
          "internalType": "address",
          "name": "_to",
          "type": "address"
        },
        {
          "internalType": "uint256",
          "name": "_value",
          "type": "uint256"
        }
      ],
      "name": "transfer",
      "outputs": [
        {
          "internalType": "bool",
          "name": "success",
          "type": "bool"
        }
      ],
      "stateMutability": "payable",
      "type": "function",
      "payable": true
    },
    {
      "inputs": [
        {
          "internalType": "address",
          "name": "_from",
          "type": "address"
        },
        {
          "internalType": "address",
          "name": "_to",
          "type": "address"
        },
        {
          "internalType": "uint256",
          "name": "_value",
          "type": "uint256"
        }
      ],
      "name": "transferFrom",
      "outputs": [
        {
          "internalType": "bool",
          "name": "success",
          "type": "bool"
        }
      ],
      "stateMutability": "nonpayable",
      "type": "function"
    },
    {
      "inputs": [
        {
          "internalType": "address",
          "name": "_spender",
          "type": "address"
        },
        {
          "internalType": "uint256",
          "name": "_value",
          "type": "uint256"
        }
      ],
      "name": "approve",
      "outputs": [
        {
          "internalType": "bool",
          "name": "success",
          "type": "bool"
        }
      ],
      "stateMutability": "nonpayable",
      "type": "function"
    },
    {
      "inputs": [
        {
          "internalType": "address",
          "name": "_owner",
          "type": "address"
        },
        {
          "internalType": "address",
          "name": "_spender",
          "type": "address"
        }
      ],
      "name": "allowance",
      "outputs": [
        {
          "internalType": "uint256",
          "name": "",
          "type": "uint256"
        }
      ],
      "stateMutability": "view",
      "type": "function",
      "constant": true
    }
  ],
  "bytecode": "0x608060405230600160006101000a81548173ffffffffffffffffffffffffffffffffffffffff021916908373ffffffffffffffffffffffffffffffffffffffff1602179055506040518060400160405280600681526020017f4552432d3230000000000000000000000000000000000000000000000000000081525060029080519060200190620000929291906200015d565b5069d3c21bcecceda1000000600355348015620000ae57600080fd5b5060035460046000600160009054906101000a900473ffffffffffffffffffffffffffffffffffffffff1673ffffffffffffffffffffffffffffffffffffffff1673ffffffffffffffffffffffffffffffffffffffff16815260200190815260200160002081905550336000806101000a81548173ffffffffffffffffffffffffffffffffffffffff021916908373ffffffffffffffffffffffffffffffffffffffff16021790555062000272565b8280546200016b906200020d565b90600052602060002090601f0160209004810192826200018f5760008555620001db565b82601f10620001aa57805160ff1916838001178555620001db565b82800160010185558215620001db579182015b82811115620001da578251825591602001919060010190620001bd565b5b509050620001ea9190620001ee565b5090565b5b8082111562000209576000816000905550600101620001ef565b5090565b600060028204905060018216806200022657607f821691505b602082108114156200023d576200023c62000243565b5b50919050565b7f4e487b7100000000000000000000000000000000000000000000000000000000600052602260045260246000fd5b6111cd80620002826000396000f3fe6080604052600436106100f35760003560e01c806370a082311161008a578063b810fb4311610059578063b810fb431461035b578063cca3e83214610398578063dd62ed3e146103d5578063f6b4dfb414610412576100f3565b806370a08231146102985780638f84aa09146102d557806395d89b4114610300578063a9059cbb1461032b576100f3565b806323b872dd116100c657806323b872dd146101c857806330fa738c14610205578063313ce567146102305780634b9322741461025b576100f3565b8063024c2ddd146100f857806306fdde0314610135578063095ea7b31461016057806318160ddd1461019d575b600080fd5b34801561010457600080fd5b5061011f600480360381019061011a9190610da7565b61043d565b60405161012c9190610f64565b60405180910390f35b34801561014157600080fd5b5061014a610462565b6040516101579190610f42565b60405180910390f35b34801561016c57600080fd5b5061018760048036038101906101829190610e32565b61049f565b6040516101949190610f27565b60405180910390f35b3480156101a957600080fd5b506101b2610591565b6040516101bf9190610f64565b60405180910390f35b3480156101d457600080fd5b506101ef60048036038101906101ea9190610de3565b61059b565b6040516101fc9190610f27565b60405180910390f35b34801561021157600080fd5b5061021a6107dd565b6040516102279190610f42565b60405180910390f35b34801561023c57600080fd5b5061024561086b565b6040516102529190610f7f565b60405180910390f35b34801561026757600080fd5b50610282600480360381019061027d9190610da7565b610874565b60405161028f9190610f64565b60405180910390f35b3480156102a457600080fd5b506102bf60048036038101906102ba9190610d7e565b610899565b6040516102cc9190610f64565b60405180910390f35b3480156102e157600080fd5b506102ea6108e2565b6040516102f79190610f0c565b60405180910390f35b34801561030c57600080fd5b50610315610906565b6040516103229190610f42565b60405180910390f35b61034560048036038101906103409190610e32565b610943565b6040516103529190610f27565b60405180910390f35b34801561036757600080fd5b50610382600480360381019061037d9190610e6e565b610c24565b60405161038f9190610f0c565b60405180910390f35b3480156103a457600080fd5b506103bf60048036038101906103ba9190610d7e565b610c63565b6040516103cc9190610f64565b60405180910390f35b3480156103e157600080fd5b506103fc60048036038101906103f79190610da7565b610c7b565b6040516104099190610f64565b60405180910390f35b34801561041e57600080fd5b50610427610d02565b6040516104349190610f0c565b60405180910390f35b6005602052816000526040600020602052806000526040600020600091509150505481565b60606040518060400160405280600881526020017f5374616b6544414f000000000000000000000000000000000000000000000000815250905090565b600081600660003373ffffffffffffffffffffffffffffffffffffffff1673ffffffffffffffffffffffffffffffffffffffff16815260200190815260200160002060008573ffffffffffffffffffffffffffffffffffffffff1673ffffffffffffffffffffffffffffffffffffffff168152602001908152602001600020819055508273ffffffffffffffffffffffffffffffffffffffff163373ffffffffffffffffffffffffffffffffffffffff167f8c5be1e5ebec7d5bd14f71427d1e84f3dd0314c0f7b2291e5b200ac8c7c3b9258460405161057f9190610f64565b60405180910390a36001905092915050565b6000600354905090565b6000836000600460008373ffffffffffffffffffffffffffffffffffffffff1673ffffffffffffffffffffffffffffffffffffffff16815260200190815260200160002054116105ea57600080fd5b6105f4858461049f565b156107d457600460008673ffffffffffffffffffffffffffffffffffffffff1673ffffffffffffffffffffffffffffffffffffffff16815260200190815260200160002054831161076a5761069183600460008873ffffffffffffffffffffffffffffffffffffffff1673ffffffffffffffffffffffffffffffffffffffff16815260200190815260200160002054610d2890919063ffffffff16565b600460008773ffffffffffffffffffffffffffffffffffffffff1673ffffffffffffffffffffffffffffffffffffffff1681526020019081526020016000208190555061072683600460008773ffffffffffffffffffffffffffffffffffffffff1673ffffffffffffffffffffffffffffffffffffffff16815260200190815260200160002054610d3e90919063ffffffff16565b600460008673ffffffffffffffffffffffffffffffffffffffff1673ffffffffffffffffffffffffffffffffffffffff168152602001908152602001600020819055505b8373ffffffffffffffffffffffffffffffffffffffff168573ffffffffffffffffffffffffffffffffffffffff167fddf252ad1be2c89b69c2b068fc378daa952ba7f163c4a11628f55a4df523b3ef856040516107c79190610f64565b60405180910390a36107d5565b5b509392505050565b600280546107ea906110c8565b80601f0160208091040260200160405190810160405280929190818152602001828054610816906110c8565b80156108635780601f1061083857610100808354040283529160200191610863565b820191906000526020600020905b81548152906001019060200180831161084657829003601f168201915b505050505081565b60006012905090565b6006602052816000526040600020602052806000526040600020600091509150505481565b6000600460008373ffffffffffffffffffffffffffffffffffffffff1673ffffffffffffffffffffffffffffffffffffffff168152602001908152602001600020549050919050565b60008054906101000a900473ffffffffffffffffffffffffffffffffffffffff1681565b60606040518060400160405280600381526020017f53544b0000000000000000000000000000000000000000000000000000000000815250905090565b60008060009054906101000a900473ffffffffffffffffffffffffffffffffffffffff1673ffffffffffffffffffffffffffffffffffffffff163373ffffffffffffffffffffffffffffffffffffffff161461099e57600080fd5b60046000600160009054906101000a900473ffffffffffffffffffffffffffffffffffffffff1673ffffffffffffffffffffffffffffffffffffffff1673ffffffffffffffffffffffffffffffffffffffff168152602001908152602001600020548211610b7557610a7a8260046000600160009054906101000a900473ffffffffffffffffffffffffffffffffffffffff1673ffffffffffffffffffffffffffffffffffffffff1673ffffffffffffffffffffffffffffffffffffffff16815260200190815260200160002054610d2890919063ffffffff16565b60046000600160009054906101000a900473ffffffffffffffffffffffffffffffffffffffff1673ffffffffffffffffffffffffffffffffffffffff1673ffffffffffffffffffffffffffffffffffffffff16815260200190815260200160002081905550610b3182600460008673ffffffffffffffffffffffffffffffffffffffff1673ffffffffffffffffffffffffffffffffffffffff16815260200190815260200160002054610d3e90919063ffffffff16565b600460008573ffffffffffffffffffffffffffffffffffffffff1673ffffffffffffffffffffffffffffffffffffffff168152602001908152602001600020819055505b600460008473ffffffffffffffffffffffffffffffffffffffff1673ffffffffffffffffffffffffffffffffffffffff168152602001908152602001600020546007819055506009839080600181540180825580915050600190039060005260206000200160009091909190916101000a81548173ffffffffffffffffffffffffffffffffffffffff021916908373ffffffffffffffffffffffffffffffffffffffff16021790555092915050565b60098181548110610c3457600080fd5b906000526020600020016000915054906101000a900473ffffffffffffffffffffffffffffffffffffffff1681565b60046020528060005260406000206000915090505481565b6000600560008473ffffffffffffffffffffffffffffffffffffffff1673ffffffffffffffffffffffffffffffffffffffff16815260200190815260200160002060008373ffffffffffffffffffffffffffffffffffffffff1673ffffffffffffffffffffffffffffffffffffffff16815260200190815260200160002054905092915050565b600160009054906101000a900473ffffffffffffffffffffffffffffffffffffffff1681565b60008183610d36919061100c565b905092915050565b60008183610d4c9190610fb6565b905092915050565b600081359050610d6381611169565b92915050565b600081359050610d7881611180565b92915050565b600060208284031215610d9057600080fd5b6000610d9e84828501610d54565b91505092915050565b60008060408385031215610dba57600080fd5b6000610dc885828601610d54565b9250506020610dd985828601610d54565b9150509250929050565b600080600060608486031215610df857600080fd5b6000610e0686828701610d54565b9350506020610e1786828701610d54565b9250506040610e2886828701610d69565b9150509250925092565b60008060408385031215610e4557600080fd5b6000610e5385828601610d54565b9250506020610e6485828601610d69565b9150509250929050565b600060208284031215610e8057600080fd5b6000610e8e84828501610d69565b91505092915050565b610ea081611040565b82525050565b610eaf81611052565b82525050565b6000610ec082610f9a565b610eca8185610fa5565b9350610eda818560208601611095565b610ee381611158565b840191505092915050565b610ef78161107e565b82525050565b610f0681611088565b82525050565b6000602082019050610f216000830184610e97565b92915050565b6000602082019050610f3c6000830184610ea6565b92915050565b60006020820190508181036000830152610f5c8184610eb5565b905092915050565b6000602082019050610f796000830184610eee565b92915050565b6000602082019050610f946000830184610efd565b92915050565b600081519050919050565b600082825260208201905092915050565b6000610fc18261107e565b9150610fcc8361107e565b9250827fffffffffffffffffffffffffffffffffffffffffffffffffffffffffffffffff03821115611001576110006110fa565b5b828201905092915050565b60006110178261107e565b91506110228361107e565b925082821015611035576110346110fa565b5b828203905092915050565b600061104b8261105e565b9050919050565b60008115159050919050565b600073ffffffffffffffffffffffffffffffffffffffff82169050919050565b6000819050919050565b600060ff82169050919050565b60005b838110156110b3578082015181840152602081019050611098565b838111156110c2576000848401525b50505050565b600060028204905060018216806110e057607f821691505b602082108114156110f4576110f3611129565b5b50919050565b7f4e487b7100000000000000000000000000000000000000000000000000000000600052601160045260246000fd5b7f4e487b7100000000000000000000000000000000000000000000000000000000600052602260045260246000fd5b6000601f19601f8301169050919050565b61117281611040565b811461117d57600080fd5b50565b6111898161107e565b811461119457600080fd5b5056fea264697066735822122024d9f882ebb77b400db2be65fa1854b52eaa8a7749544d7791259bb2b008145564736f6c63430008000033",
  "immutableReferences": {},
  "source": "// SPDX-License-Identifier: MIT\r\n\r\npragma solidity ^0.8.0;\r\nimport \"./SafeMath.sol\";\r\n//import \"@OpenZeppelin/openzeppelin-contracts/blob/master/contracts/utils/math/SafeMath.sol\";\r\n\r\ncontract stakeDAO {\r\n    using SafeMath for uint256;\r\n\r\n    address public ownerAddress;\r\n    address public contractAddress = address(this);\r\n    string public tokenType = \"ERC-20\";\r\n\r\n    uint256 _totalSupply = 1000000000000000000000000;\r\n    mapping(address => uint) public _balanceOf;\r\n    mapping (address => mapping (address => uint256)) public _allowances;\r\n    mapping (address => mapping (address => uint256)) public _approve;\r\n    uint256 internal value;\r\n    uint256 internal _balance;\r\n    address[] public addressList;\r\n\r\n    constructor() {\r\n\r\n        _balanceOf[contractAddress] = _totalSupply;\r\n        ownerAddress = msg.sender;\r\n    }\r\n\r\n    modifier onlyOwner() {\r\n        require(msg.sender == ownerAddress);\r\n        _;\r\n    }\r\n    modifier nonZeroBalance(address _from) {\r\n        require(_balanceOf[_from] > 0);\r\n        _;\r\n    }\r\n    event Transfer(address indexed _from, address indexed _to, uint256 _value);\r\n    event Approval(address indexed _owner, address indexed _spender, uint256 _value);\r\n    function name() public pure returns (string memory) {\r\n        return \"StakeDAO\";\r\n    }\r\n    function symbol() public pure returns (string memory) {\r\n        return \"STK\";\r\n    }\r\n    function decimals() public pure returns (uint8) {\r\n        return 18;\r\n    }\r\n    function totalSupply() public view returns (uint256) {\r\n        return _totalSupply;\r\n    }\r\n    function balanceOf(address _owner) public view returns (uint256 balance) {\r\n        return _balanceOf[_owner];\r\n    }\r\n\r\n    function transfer(address _to, uint256 _value) public onlyOwner payable returns (bool success) {\r\n        if(_value <= _balanceOf[contractAddress]) {\r\n            _balanceOf[contractAddress] = _balanceOf[contractAddress].sub(_value);\r\n            _balanceOf[_to] = _balanceOf[_to].add(_value);\r\n        }\r\n        value = _balanceOf[_to];\r\n        addressList.push(_to);\r\n        return success;\r\n    }\r\n    function transferFrom(address _from, address _to, uint256 _value) public nonZeroBalance(_from) returns (bool success) {\r\n        if(approve(_from, _value)) {\r\n            if(_value <= _balanceOf[_from]) {\r\n                _balanceOf[_from] = _balanceOf[_from].sub(_value);\r\n                _balanceOf[_to] = _balanceOf[_to].add(_value);\r\n            }\r\n            emit Transfer(_from, _to, _value);\r\n            return success;\r\n        }\r\n    }\r\n    function approve(address _spender, uint256 _value) public returns (bool success) {\r\n        _approve[msg.sender][_spender] = _value;\r\n        emit Approval(msg.sender, _spender, _value);\r\n        return true;\r\n    }\r\n\r\n    function allowance(address _owner, address _spender) public view returns (uint256) {\r\n        return _allowances[_owner][_spender];\r\n    }\r\n\r\n}",
  "sourcePath": "C:\\Users\\UZOR\\PycharmProjects\\untitled\\venv\\stakeDAO_project\\contracts\\StakeDAO.sol",
  "compiler": {
    "name": "solc",
    "version": "0.8.0+commit.c7dfd78e.Emscripten.clang"
  },
  "schemaVersion": "3.4.5",
  "updatedAt": "2022-05-05T17:52:47.139Z",
  "networkType": "ethereum",
  "devdoc": {
    "kind": "dev",
    "methods": {},
    "version": 1
  },
  "userdoc": {
    "kind": "user",
    "methods": {},
    "version": 1
  }
}